{
  "contractName": "Metadata",
  "abi": [
    {
      "constant": true,
      "inputs": [
        {
          "internalType": "uint256",
          "name": "_tokenId",
          "type": "uint256"
        }
      ],
      "name": "tokenURI",
      "outputs": [
        {
          "internalType": "string",
          "name": "_infoUrl",
          "type": "string"
        }
      ],
      "payable": false,
      "stateMutability": "pure",
      "type": "function",
      "signature": "0xc87b56dd"
    },
    {
      "constant": true,
      "inputs": [
        {
          "internalType": "uint256",
          "name": "x",
          "type": "uint256"
        }
      ],
      "name": "toBytes",
      "outputs": [
        {
          "internalType": "bytes",
          "name": "b",
          "type": "bytes"
        }
      ],
      "payable": false,
      "stateMutability": "pure",
      "type": "function",
      "signature": "0x775a8f5e"
    }
  ],
  "bytecode": "0x608060405234801561001057600080fd5b506104d8806100206000396000f3fe608060405234801561001057600080fd5b50600436106100365760003560e01c8063775a8f5e1461003b578063c87b56dd146100e2575b600080fd5b6100676004803603602081101561005157600080fd5b8101908080359060200190929190505050610189565b6040518080602001828103825283818151815260200191508051906020019080838360005b838110156100a757808201518184015260208101905061008c565b50505050905090810190601f1680156100d45780820380516001836020036101000a031916815260200191505b509250505060405180910390f35b61010e600480360360208110156100f857600080fd5b81019080803590602001909291905050506101cd565b6040518080602001828103825283818151815260200191508051906020019080838360005b8381101561014e578082015181840152602081019050610133565b50505050905090810190601f16801561017b5780820380516001836020036101000a031916815260200191505b509250505060405180910390f35b606060206040519080825280601f01601f1916602001820160405280156101bf5781602001600182028038833980820191505090505b509050816020820152919050565b6060806040518060400160405280601c81526020017f68747470733a2f2f646f6d61696e2e636f6d2f6d657461646174612f000000008152509050606061021384610241565b905061023861022182610390565b61022a84610390565b6103be90919063ffffffff16565b92505050919050565b60606000821415610289576040518060400160405280600181526020017f3000000000000000000000000000000000000000000000000000000000000000815250905061038b565b600082905060005b600082146102b3578080600101915050600a82816102ab57fe5b049150610291565b6060816040519080825280601f01601f1916602001820160405280156102e85781602001600182028038833980820191505090505b50905060006001830390505b60008614610383576000600a878161030857fe5b06603001905061031781610189565b601f8151811061032357fe5b602001015160f81c60f81b8383806001900394508151811061034157fe5b60200101907effffffffffffffffffffffffffffffffffffffffffffffffffffffffffffff1916908160001a905350600a878161037a57fe5b049650506102f4565b819450505050505b919050565b610398610489565b600060208301905060405180604001604052808451815260200182815250915050919050565b60608082600001518460000151016040519080825280601f01601f1916602001820160405280156103fe5781602001600182028038833980820191505090505b509050600060208201905061041c8186602001518760000151610440565b6104358560000151820185602001518660000151610440565b819250505092915050565b5b602081106104645781518352602083019250602082019150602081039050610441565b60006001826020036101000a0390508019835116818551168181178652505050505050565b60405180604001604052806000815260200160008152509056fea265627a7a72315820af10139d59f55a112d6602e2b64f77884fdaf7613656bcb4bc063e393453d62f64736f6c63430005100032",
  "source": "pragma solidity ^0.5.0;\n/**\n * Metadata contract is upgradeable and returns metadata about Token\n */\n\nimport \"./helpers/strings.sol\";\n\ncontract Metadata {\n    using strings for *;\n\n    function tokenURI(uint256 _tokenId)\n        public\n        pure\n        returns (string memory _infoUrl)\n    {\n        string memory base = \"https://domain.com/metadata/\";\n        string memory id = uint2str(_tokenId);\n        return base.toSlice().concat(id.toSlice());\n    }\n\n    function uint2str(uint256 i) internal pure returns (string memory) {\n        if (i == 0) return \"0\";\n        uint256 j = i;\n        uint256 length;\n        while (j != 0) {\n            length++;\n            j /= 10;\n        }\n        bytes memory bstr = new bytes(length);\n        uint256 k = length - 1;\n        while (i != 0) {\n            uint256 _uint = 48 + (i % 10);\n            bstr[k--] = toBytes(_uint)[31];\n            i /= 10;\n        }\n        return string(bstr);\n    }\n\n    function toBytes(uint256 x) public pure returns (bytes memory b) {\n        b = new bytes(32);\n        assembly {\n            mstore(add(b, 32), x)\n        }\n    }\n}\n",
  "sourcePath": "/home/leo/DeFiNet/hackathons/chainlink/nft/contracts/Metadata.sol",
  "compiler": {
    "name": "solc",
    "version": "0.5.16+commit.9c3226ce.Emscripten.clang"
  },
  "schemaVersion": "3.0.5",
  "updatedAt": "2021-04-11T22:33:03.466Z",
  "devdoc": {
    "methods": {}
  },
  "userdoc": {
    "methods": {}
  }
}